{
  "_format": "hh-sol-artifact-1",
  "contractName": "Token",
  "sourceName": "contracts/token/Token.sol",
  "abi": [
    {
      "inputs": [
        {
          "internalType": "contract IAuthority",
          "name": "_authority",
          "type": "address"
        }
      ],
      "stateMutability": "nonpayable",
      "type": "constructor"
    },
    {
      "anonymous": false,
      "inputs": [
        {
          "indexed": false,
          "internalType": "address",
          "name": "previousAdmin",
          "type": "address"
        },
        {
          "indexed": false,
          "internalType": "address",
          "name": "newAdmin",
          "type": "address"
        }
      ],
      "name": "AdminChanged",
      "type": "event"
    },
    {
      "anonymous": false,
      "inputs": [
        {
          "indexed": true,
          "internalType": "address",
          "name": "owner",
          "type": "address"
        },
        {
          "indexed": true,
          "internalType": "address",
          "name": "spender",
          "type": "address"
        },
        {
          "indexed": false,
          "internalType": "uint256",
          "name": "value",
          "type": "uint256"
        }
      ],
      "name": "Approval",
      "type": "event"
    },
    {
      "anonymous": false,
      "inputs": [
        {
          "indexed": true,
          "internalType": "address",
          "name": "beacon",
          "type": "address"
        }
      ],
      "name": "BeaconUpgraded",
      "type": "event"
    },
    {
      "anonymous": false,
      "inputs": [],
      "name": "EIP712DomainChanged",
      "type": "event"
    },
    {
      "anonymous": false,
      "inputs": [
        {
          "indexed": false,
          "internalType": "uint8",
          "name": "version",
          "type": "uint8"
        }
      ],
      "name": "Initialized",
      "type": "event"
    },
    {
      "anonymous": false,
      "inputs": [
        {
          "indexed": false,
          "internalType": "address",
          "name": "account",
          "type": "address"
        }
      ],
      "name": "Paused",
      "type": "event"
    },
    {
      "anonymous": false,
      "inputs": [
        {
          "indexed": true,
          "internalType": "address",
          "name": "from",
          "type": "address"
        },
        {
          "indexed": true,
          "internalType": "address",
          "name": "to",
          "type": "address"
        },
        {
          "indexed": false,
          "internalType": "uint256",
          "name": "value",
          "type": "uint256"
        }
      ],
      "name": "Transfer",
      "type": "event"
    },
    {
      "anonymous": false,
      "inputs": [
        {
          "indexed": false,
          "internalType": "address",
          "name": "account",
          "type": "address"
        }
      ],
      "name": "Unpaused",
      "type": "event"
    },
    {
      "anonymous": false,
      "inputs": [
        {
          "indexed": true,
          "internalType": "address",
          "name": "implementation",
          "type": "address"
        }
      ],
      "name": "Upgraded",
      "type": "event"
    },
    {
      "inputs": [],
      "name": "DOMAIN_SEPARATOR",
      "outputs": [
        {
          "internalType": "bytes32",
          "name": "",
          "type": "bytes32"
        }
      ],
      "stateMutability": "view",
      "type": "function"
    },
    {
      "inputs": [
        {
          "internalType": "address",
          "name": "owner",
          "type": "address"
        },
        {
          "internalType": "address",
          "name": "spender",
          "type": "address"
        }
      ],
      "name": "allowance",
      "outputs": [
        {
          "internalType": "uint256",
          "name": "",
          "type": "uint256"
        }
      ],
      "stateMutability": "view",
      "type": "function"
    },
    {
      "inputs": [
        {
          "internalType": "address",
          "name": "spender",
          "type": "address"
        },
        {
          "internalType": "uint256",
          "name": "amount",
          "type": "uint256"
        }
      ],
      "name": "approve",
      "outputs": [
        {
          "internalType": "bool",
          "name": "",
          "type": "bool"
        }
      ],
      "stateMutability": "nonpayable",
      "type": "function"
    },
    {
      "inputs": [
        {
          "internalType": "address",
          "name": "spender",
          "type": "address"
        },
        {
          "internalType": "uint256",
          "name": "value",
          "type": "uint256"
        }
      ],
      "name": "approveAndCall",
      "outputs": [
        {
          "internalType": "bool",
          "name": "",
          "type": "bool"
        }
      ],
      "stateMutability": "nonpayable",
      "type": "function"
    },
    {
      "inputs": [
        {
          "internalType": "address",
          "name": "spender",
          "type": "address"
        },
        {
          "internalType": "uint256",
          "name": "value",
          "type": "uint256"
        },
        {
          "internalType": "bytes",
          "name": "data",
          "type": "bytes"
        }
      ],
      "name": "approveAndCall",
      "outputs": [
        {
          "internalType": "bool",
          "name": "",
          "type": "bool"
        }
      ],
      "stateMutability": "nonpayable",
      "type": "function"
    },
    {
      "inputs": [],
      "name": "authority",
      "outputs": [
        {
          "internalType": "contract IAuthority",
          "name": "",
          "type": "address"
        }
      ],
      "stateMutability": "view",
      "type": "function"
    },
    {
      "inputs": [
        {
          "internalType": "address",
          "name": "account",
          "type": "address"
        }
      ],
      "name": "balanceOf",
      "outputs": [
        {
          "internalType": "uint256",
          "name": "",
          "type": "uint256"
        }
      ],
      "stateMutability": "view",
      "type": "function"
    },
    {
      "inputs": [
        {
          "internalType": "address",
          "name": "from",
          "type": "address"
        },
        {
          "internalType": "uint256",
          "name": "amount",
          "type": "uint256"
        }
      ],
      "name": "burn",
      "outputs": [],
      "stateMutability": "nonpayable",
      "type": "function"
    },
    {
      "inputs": [],
      "name": "decimals",
      "outputs": [
        {
          "internalType": "uint8",
          "name": "",
          "type": "uint8"
        }
      ],
      "stateMutability": "view",
      "type": "function"
    },
    {
      "inputs": [
        {
          "internalType": "address",
          "name": "spender",
          "type": "address"
        },
        {
          "internalType": "uint256",
          "name": "subtractedValue",
          "type": "uint256"
        }
      ],
      "name": "decreaseAllowance",
      "outputs": [
        {
          "internalType": "bool",
          "name": "",
          "type": "bool"
        }
      ],
      "stateMutability": "nonpayable",
      "type": "function"
    },
    {
      "inputs": [],
      "name": "eip712Domain",
      "outputs": [
        {
          "internalType": "bytes1",
          "name": "fields",
          "type": "bytes1"
        },
        {
          "internalType": "string",
          "name": "name",
          "type": "string"
        },
        {
          "internalType": "string",
          "name": "version",
          "type": "string"
        },
        {
          "internalType": "uint256",
          "name": "chainId",
          "type": "uint256"
        },
        {
          "internalType": "address",
          "name": "verifyingContract",
          "type": "address"
        },
        {
          "internalType": "bytes32",
          "name": "salt",
          "type": "bytes32"
        },
        {
          "internalType": "uint256[]",
          "name": "extensions",
          "type": "uint256[]"
        }
      ],
      "stateMutability": "view",
      "type": "function"
    },
    {
      "inputs": [
        {
          "internalType": "address",
          "name": "spender",
          "type": "address"
        },
        {
          "internalType": "uint256",
          "name": "addedValue",
          "type": "uint256"
        }
      ],
      "name": "increaseAllowance",
      "outputs": [
        {
          "internalType": "bool",
          "name": "",
          "type": "bool"
        }
      ],
      "stateMutability": "nonpayable",
      "type": "function"
    },
    {
      "inputs": [
        {
          "internalType": "string",
          "name": "_name",
          "type": "string"
        },
        {
          "internalType": "string",
          "name": "_symbol",
          "type": "string"
        }
      ],
      "name": "initialize",
      "outputs": [],
      "stateMutability": "nonpayable",
      "type": "function"
    },
    {
      "inputs": [
        {
          "internalType": "address",
          "name": "to",
          "type": "address"
        },
        {
          "internalType": "uint256",
          "name": "amount",
          "type": "uint256"
        }
      ],
      "name": "mint",
      "outputs": [],
      "stateMutability": "nonpayable",
      "type": "function"
    },
    {
      "inputs": [
        {
          "internalType": "bytes[]",
          "name": "data",
          "type": "bytes[]"
        }
      ],
      "name": "multicall",
      "outputs": [
        {
          "internalType": "bytes[]",
          "name": "results",
          "type": "bytes[]"
        }
      ],
      "stateMutability": "nonpayable",
      "type": "function"
    },
    {
      "inputs": [],
      "name": "name",
      "outputs": [
        {
          "internalType": "string",
          "name": "",
          "type": "string"
        }
      ],
      "stateMutability": "view",
      "type": "function"
    },
    {
      "inputs": [
        {
          "internalType": "address",
          "name": "owner",
          "type": "address"
        }
      ],
      "name": "nonces",
      "outputs": [
        {
          "internalType": "uint256",
          "name": "",
          "type": "uint256"
        }
      ],
      "stateMutability": "view",
      "type": "function"
    },
    {
      "inputs": [],
      "name": "pause",
      "outputs": [],
      "stateMutability": "nonpayable",
      "type": "function"
    },
    {
      "inputs": [],
      "name": "paused",
      "outputs": [
        {
          "internalType": "bool",
          "name": "",
          "type": "bool"
        }
      ],
      "stateMutability": "view",
      "type": "function"
    },
    {
      "inputs": [
        {
          "internalType": "address",
          "name": "owner",
          "type": "address"
        },
        {
          "internalType": "address",
          "name": "spender",
          "type": "address"
        },
        {
          "internalType": "uint256",
          "name": "value",
          "type": "uint256"
        },
        {
          "internalType": "uint256",
          "name": "deadline",
          "type": "uint256"
        },
        {
          "internalType": "uint8",
          "name": "v",
          "type": "uint8"
        },
        {
          "internalType": "bytes32",
          "name": "r",
          "type": "bytes32"
        },
        {
          "internalType": "bytes32",
          "name": "s",
          "type": "bytes32"
        }
      ],
      "name": "permit",
      "outputs": [],
      "stateMutability": "nonpayable",
      "type": "function"
    },
    {
      "inputs": [],
      "name": "proxiableUUID",
      "outputs": [
        {
          "internalType": "bytes32",
          "name": "",
          "type": "bytes32"
        }
      ],
      "stateMutability": "view",
      "type": "function"
    },
    {
      "inputs": [],
      "name": "symbol",
      "outputs": [
        {
          "internalType": "string",
          "name": "",
          "type": "string"
        }
      ],
      "stateMutability": "view",
      "type": "function"
    },
    {
      "inputs": [],
      "name": "totalSupply",
      "outputs": [
        {
          "internalType": "uint256",
          "name": "",
          "type": "uint256"
        }
      ],
      "stateMutability": "view",
      "type": "function"
    },
    {
      "inputs": [
        {
          "internalType": "address",
          "name": "to",
          "type": "address"
        },
        {
          "internalType": "uint256",
          "name": "amount",
          "type": "uint256"
        }
      ],
      "name": "transfer",
      "outputs": [
        {
          "internalType": "bool",
          "name": "",
          "type": "bool"
        }
      ],
      "stateMutability": "nonpayable",
      "type": "function"
    },
    {
      "inputs": [
        {
          "internalType": "address",
          "name": "to",
          "type": "address"
        },
        {
          "internalType": "uint256",
          "name": "value",
          "type": "uint256"
        }
      ],
      "name": "transferAndCall",
      "outputs": [
        {
          "internalType": "bool",
          "name": "",
          "type": "bool"
        }
      ],
      "stateMutability": "nonpayable",
      "type": "function"
    },
    {
      "inputs": [
        {
          "internalType": "address",
          "name": "to",
          "type": "address"
        },
        {
          "internalType": "uint256",
          "name": "value",
          "type": "uint256"
        },
        {
          "internalType": "bytes",
          "name": "data",
          "type": "bytes"
        }
      ],
      "name": "transferAndCall",
      "outputs": [
        {
          "internalType": "bool",
          "name": "",
          "type": "bool"
        }
      ],
      "stateMutability": "nonpayable",
      "type": "function"
    },
    {
      "inputs": [
        {
          "internalType": "address",
          "name": "from",
          "type": "address"
        },
        {
          "internalType": "address",
          "name": "to",
          "type": "address"
        },
        {
          "internalType": "uint256",
          "name": "amount",
          "type": "uint256"
        }
      ],
      "name": "transferFrom",
      "outputs": [
        {
          "internalType": "bool",
          "name": "",
          "type": "bool"
        }
      ],
      "stateMutability": "nonpayable",
      "type": "function"
    },
    {
      "inputs": [
        {
          "internalType": "address",
          "name": "from",
          "type": "address"
        },
        {
          "internalType": "address",
          "name": "to",
          "type": "address"
        },
        {
          "internalType": "uint256",
          "name": "value",
          "type": "uint256"
        },
        {
          "internalType": "bytes",
          "name": "data",
          "type": "bytes"
        }
      ],
      "name": "transferFromAndCall",
      "outputs": [
        {
          "internalType": "bool",
          "name": "",
          "type": "bool"
        }
      ],
      "stateMutability": "nonpayable",
      "type": "function"
    },
    {
      "inputs": [
        {
          "internalType": "address",
          "name": "from",
          "type": "address"
        },
        {
          "internalType": "address",
          "name": "to",
          "type": "address"
        },
        {
          "internalType": "uint256",
          "name": "value",
          "type": "uint256"
        }
      ],
      "name": "transferFromAndCall",
      "outputs": [
        {
          "internalType": "bool",
          "name": "",
          "type": "bool"
        }
      ],
      "stateMutability": "nonpayable",
      "type": "function"
    },
    {
      "inputs": [],
      "name": "unpause",
      "outputs": [],
      "stateMutability": "nonpayable",
      "type": "function"
    },
    {
      "inputs": [
        {
          "internalType": "address",
          "name": "newImplementation",
          "type": "address"
        }
      ],
      "name": "upgradeTo",
      "outputs": [],
      "stateMutability": "nonpayable",
      "type": "function"
    },
    {
      "inputs": [
        {
          "internalType": "address",
          "name": "newImplementation",
          "type": "address"
        },
        {
          "internalType": "bytes",
          "name": "data",
          "type": "bytes"
        }
      ],
      "name": "upgradeToAndCall",
      "outputs": [],
      "stateMutability": "payable",
      "type": "function"
    }
  ],
  "bytecode": "0x60c06040523060805234801562000014575f80fd5b506040516200337038038062003370833981016040819052620000379162000111565b6200004162000053565b6001600160a01b031660a05262000140565b5f54610100900460ff1615620000bf5760405162461bcd60e51b815260206004820152602760248201527f496e697469616c697a61626c653a20636f6e747261637420697320696e697469604482015266616c697a696e6760c81b606482015260840160405180910390fd5b5f5460ff908116146200010f575f805460ff191660ff9081179091556040519081527f7f26b83ff96e1f2b6a682f133852f6798a09c465da95921460cefb38474024989060200160405180910390a15b565b5f6020828403121562000122575f80fd5b81516001600160a01b038116811462000139575f80fd5b9392505050565b60805160a0516131c1620001af5f395f818161050d0152818161081501528181610a3601528181610e4901528181610faf0152818161196001528181611f81015261206801525f81816107010152818161074a01528181610ca301528181610ce30152610d7001526131c15ff3fe6080604052600436106101db575f3560e01c80635c975abb116100fd578063a9059cbb11610092578063cae9ca5111610062578063cae9ca5114610566578063d505accf14610585578063d8fbe994146105a4578063dd62ed3e146105c3575f80fd5b8063a9059cbb146104b1578063ac9650d8146104d0578063bf7e214f146104fc578063c1d34b8914610547575f80fd5b806384b0196e116100cd57806384b0196e1461043857806395d89b411461045f5780639dc29fac14610473578063a457c2d714610492575f80fd5b80635c975abb146103ba57806370a08231146103d15780637ecebe00146104055780638456cb5914610424575f80fd5b80633659cfe61161017357806340c10f191161014357806340c10f19146103555780634cd88b76146103745780634f1ef2861461039357806352d1902d146103a6575f80fd5b80633659cfe6146102e257806339509351146103035780633f4ba83a146103225780634000aea014610336575f80fd5b806323b872dd116101ae57806323b872dd14610275578063313ce567146102945780633177029f146102af5780633644e515146102ce575f80fd5b806306fdde03146101df578063095ea7b3146102095780631296ee621461023857806318160ddd14610257575b5f80fd5b3480156101ea575f80fd5b506101f36105e2565b604051610200919061280e565b60405180910390f35b348015610214575f80fd5b5061022861022336600461283b565b610672565b6040519015158152602001610200565b348015610243575f80fd5b5061022861025236600461283b565b61068b565b348015610262575f80fd5b506035545b604051908152602001610200565b348015610280575f80fd5b5061022861028f366004612863565b6106ac565b34801561029f575f80fd5b5060405160128152602001610200565b3480156102ba575f80fd5b506102286102c936600461283b565b6106cf565b3480156102d9575f80fd5b506102676106e9565b3480156102ed575f80fd5b506103016102fc36600461289c565b6106f7565b005b34801561030e575f80fd5b5061022861031d36600461283b565b6107dd565b34801561032d575f80fd5b506103016107fe565b348015610341575f80fd5b50610228610350366004612952565b6108be565b348015610360575f80fd5b5061030161036f36600461283b565b610a1f565b34801561037f575f80fd5b5061030161038e3660046129ea565b610ae3565b6103016103a1366004612a51565b610c99565b3480156103b1575f80fd5b50610267610d64565b3480156103c5575f80fd5b5060655460ff16610228565b3480156103dc575f80fd5b506102676103eb36600461289c565b6001600160a01b03165f9081526033602052604090205490565b348015610410575f80fd5b5061026761041f36600461289c565b610e15565b34801561042f575f80fd5b50610301610e32565b348015610443575f80fd5b5061044c610ef0565b6040516102009796959493929190612a9c565b34801561046a575f80fd5b506101f3610f89565b34801561047e575f80fd5b5061030161048d36600461283b565b610f98565b34801561049d575f80fd5b506102286104ac36600461283b565b611058565b3480156104bc575f80fd5b506102286104cb36600461283b565b6110d2565b3480156104db575f80fd5b506104ef6104ea366004612b30565b6110df565b6040516102009190612b9f565b348015610507575f80fd5b5061052f7f000000000000000000000000000000000000000000000000000000000000000081565b6040516001600160a01b039091168152602001610200565b348015610552575f80fd5b50610228610561366004612bff565b6111d2565b348015610571575f80fd5b50610228610580366004612952565b6112bc565b348015610590575f80fd5b5061030161059f366004612c63565b61144b565b3480156105af575f80fd5b506102286105be366004612863565b6115ac565b3480156105ce575f80fd5b506102676105dd366004612cd0565b6115c7565b6060603680546105f190612d01565b80601f016020809104026020016040519081016040528092919081815260200182805461061d90612d01565b80156106685780601f1061063f57610100808354040283529160200191610668565b820191905f5260205f20905b81548152906001019060200180831161064b57829003601f168201915b5050505050905090565b5f3361067f8185856115f1565b60019150505b92915050565b5f6106a5838360405180602001604052805f8152506108be565b9392505050565b5f336106b9858285611714565b6106c485858561178c565b506001949350505050565b5f6106a5838360405180602001604052805f8152506112bc565b5f6106f2611940565b905090565b6001600160a01b037f00000000000000000000000000000000000000000000000000000000000000001630036107485760405162461bcd60e51b815260040161073f90612d33565b60405180910390fd5b7f00000000000000000000000000000000000000000000000000000000000000006001600160a01b03166107905f80516020613145833981519152546001600160a01b031690565b6001600160a01b0316146107b65760405162461bcd60e51b815260040161073f90612d7f565b6107bf81611949565b604080515f808252602082019092526107da91839190611a1f565b50565b5f3361067f8185856107ef83836115c7565b6107f99190612ddf565b6115f1565b60405163b700961360e01b81526001600160a01b037f0000000000000000000000000000000000000000000000000000000000000000169063b70096139061085990339030906001600160e01b03195f351690600401612df2565b602060405180830381865afa158015610874573d5f803e3d5ffd5b505050506040513d601f19601f820116820180604052508101906108989190612e1f565b6108b45760405162461bcd60e51b815260040161073f90612e3e565b6108bc611b8e565b565b5f6108c984846110d2565b6108d1575f80fd5b604051632229f29760e21b81526001600160a01b038516906388a7ca5c90610903903390819088908890600401612e69565b6020604051808303815f875af192505050801561093d575060408051601f3d908101601f1916820190925261093a91810190612e9b565b60015b6109e4573d80801561096a576040519150601f19603f3d011682016040523d82523d5f602084013e61096f565b606091505b5080515f036109dc5760405162461bcd60e51b815260206004820152603360248201527f455243313336333a206f6e5472616e7366657252656365697665642072657665604482015272393a32b2103bb4ba3437baba103932b0b9b7b760691b606482015260840161073f565b805181602001fd5b6001600160e01b03198116632229f29760e21b14610a145760405162461bcd60e51b815260040161073f90612ec2565b505060019392505050565b60405163b700961360e01b81526001600160a01b037f0000000000000000000000000000000000000000000000000000000000000000169063b700961390610a7a90339030906001600160e01b03195f351690600401612df2565b602060405180830381865afa158015610a95573d5f803e3d5ffd5b505050506040513d601f19601f82011682018060405250810190610ab99190612e1f565b610ad55760405162461bcd60e51b815260040161073f90612e3e565b610adf8282611be0565b5050565b5f54610100900460ff1615808015610b0157505f54600160ff909116105b80610b1a5750303b158015610b1a57505f5460ff166001145b610b7d5760405162461bcd60e51b815260206004820152602e60248201527f496e697469616c697a61626c653a20636f6e747261637420697320616c72656160448201526d191e481a5b9a5d1a585b1a5e995960921b606482015260840161073f565b5f805460ff191660011790558015610b9e575f805461ff0019166101001790555b610c0f85858080601f0160208091040260200160405190810160405280939291908181526020018383808284375f9201919091525050604080516020601f890181900481028201810190925287815292508791508690819084018382808284375f92019190915250611caa92505050565b610c4d85858080601f0160208091040260200160405190810160405280939291908181526020018383808284375f92019190915250611cda92505050565b8015610c92575f805461ff0019169055604051600181527f7f26b83ff96e1f2b6a682f133852f6798a09c465da95921460cefb38474024989060200160405180910390a15b5050505050565b6001600160a01b037f0000000000000000000000000000000000000000000000000000000000000000163003610ce15760405162461bcd60e51b815260040161073f90612d33565b7f00000000000000000000000000000000000000000000000000000000000000006001600160a01b0316610d295f80516020613145833981519152546001600160a01b031690565b6001600160a01b031614610d4f5760405162461bcd60e51b815260040161073f90612d7f565b610d5882611949565b610adf82826001611a1f565b5f306001600160a01b037f00000000000000000000000000000000000000000000000000000000000000001614610e035760405162461bcd60e51b815260206004820152603860248201527f555550535570677261646561626c653a206d757374206e6f742062652063616c60448201527f6c6564207468726f7567682064656c656761746563616c6c0000000000000000606482015260840161073f565b505f8051602061314583398151915290565b6001600160a01b0381165f90815260fd6020526040812054610685565b60405163b700961360e01b81526001600160a01b037f0000000000000000000000000000000000000000000000000000000000000000169063b700961390610e8d90339030906001600160e01b03195f351690600401612df2565b602060405180830381865afa158015610ea8573d5f803e3d5ffd5b505050506040513d601f19601f82011682018060405250810190610ecc9190612e1f565b610ee85760405162461bcd60e51b815260040161073f90612e3e565b6108bc611d23565b5f6060805f805f606060c9545f801b148015610f0c575060ca54155b610f505760405162461bcd60e51b81526020600482015260156024820152741152540dcc4c8e88155b9a5b9a5d1a585b1a5e9959605a1b604482015260640161073f565b610f58611d60565b610f60611d6f565b604080515f80825260208201909252600f60f81b9b939a50919850469750309650945092509050565b6060603780546105f190612d01565b60405163b700961360e01b81526001600160a01b037f0000000000000000000000000000000000000000000000000000000000000000169063b700961390610ff390339030906001600160e01b03195f351690600401612df2565b602060405180830381865afa15801561100e573d5f803e3d5ffd5b505050506040513d601f19601f820116820180604052508101906110329190612e1f565b61104e5760405162461bcd60e51b815260040161073f90612e3e565b610adf8282611d7e565b5f338161106582866115c7565b9050838110156110c55760405162461bcd60e51b815260206004820152602560248201527f45524332303a2064656372656173656420616c6c6f77616e63652062656c6f77604482015264207a65726f60d81b606482015260840161073f565b6106c482868684036115f1565b5f3361067f81858561178c565b60608167ffffffffffffffff8111156110fa576110fa6128b5565b60405190808252806020026020018201604052801561112d57816020015b60608152602001906001900390816111185790505b5090505f5b828110156111cb5761119b3085858481811061115057611150612f0c565b90506020028101906111629190612f20565b8080601f0160208091040260200160405190810160405280939291908181526020018383808284375f92019190915250611ebb92505050565b8282815181106111ad576111ad612f0c565b602002602001018190525080806111c390612f63565b915050611132565b5092915050565b5f6111de8585856106ac565b6111e6575f80fd5b604051632229f29760e21b81526001600160a01b038516906388a7ca5c90611218903390899088908890600401612e69565b6020604051808303815f875af1925050508015611252575060408051601f3d908101601f1916820190925261124f91810190612e9b565b60015b61127f573d80801561096a576040519150601f19603f3d011682016040523d82523d5f602084013e61096f565b6001600160e01b03198116632229f29760e21b146112af5760405162461bcd60e51b815260040161073f90612ec2565b505060015b949350505050565b5f6112c78484610672565b6112cf575f80fd5b6040516307b04a2d60e41b81526001600160a01b03851690637b04a2d0906112ff90339087908790600401612f7b565b6020604051808303815f875af1925050508015611339575060408051601f3d908101601f1916820190925261133691810190612e9b565b60015b6113d8573d808015611366576040519150601f19603f3d011682016040523d82523d5f602084013e61136b565b606091505b5080515f036109dc5760405162461bcd60e51b815260206004820152603360248201527f455243313336333a206f6e417070726f76616c52656365697665642072657665604482015272393a32b2103bb4ba3437baba103932b0b9b7b760691b606482015260840161073f565b6001600160e01b031981166307b04a2d60e41b14610a145760405162461bcd60e51b815260206004820152602a60248201527f455243313336333a206f6e417070726f76616c526563656976656420696e76616044820152691b1a59081c995cdd5b1d60b21b606482015260840161073f565b8342111561149b5760405162461bcd60e51b815260206004820152601d60248201527f45524332305065726d69743a206578706972656420646561646c696e65000000604482015260640161073f565b5f7f6e71edae12b1b97f4d1f60370fef10105fa2faae0126114a169c64845d6126c98888886114c98c611ee0565b6040805160208101969096526001600160a01b0394851690860152929091166060840152608083015260a082015260c0810186905260e0016040516020818303038152906040528051906020012090505f61152382611f07565b90505f61153282878787611f33565b9050896001600160a01b0316816001600160a01b0316146115955760405162461bcd60e51b815260206004820152601e60248201527f45524332305065726d69743a20696e76616c6964207369676e61747572650000604482015260640161073f565b6115a08a8a8a6115f1565b50505050505050505050565b5f6112b484848460405180602001604052805f8152506111d2565b6001600160a01b039182165f90815260346020908152604080832093909416825291909152205490565b6001600160a01b0383166116535760405162461bcd60e51b8152602060048201526024808201527f45524332303a20617070726f76652066726f6d20746865207a65726f206164646044820152637265737360e01b606482015260840161073f565b6001600160a01b0382166116b45760405162461bcd60e51b815260206004820152602260248201527f45524332303a20617070726f766520746f20746865207a65726f206164647265604482015261737360f01b606482015260840161073f565b6001600160a01b038381165f8181526034602090815260408083209487168084529482529182902085905590518481527f8c5be1e5ebec7d5bd14f71427d1e84f3dd0314c0f7b2291e5b200ac8c7c3b925910160405180910390a3505050565b5f61171f84846115c7565b90505f19811461178657818110156117795760405162461bcd60e51b815260206004820152601d60248201527f45524332303a20696e73756666696369656e7420616c6c6f77616e6365000000604482015260640161073f565b61178684848484036115f1565b50505050565b6001600160a01b0383166117f05760405162461bcd60e51b815260206004820152602560248201527f45524332303a207472616e736665722066726f6d20746865207a65726f206164604482015264647265737360d81b606482015260840161073f565b6001600160a01b0382166118525760405162461bcd60e51b815260206004820152602360248201527f45524332303a207472616e7366657220746f20746865207a65726f206164647260448201526265737360e81b606482015260840161073f565b61185d838383611f59565b6001600160a01b0383165f90815260336020526040902054818110156118d45760405162461bcd60e51b815260206004820152602660248201527f45524332303a207472616e7366657220616d6f756e7420657863656564732062604482015265616c616e636560d01b606482015260840161073f565b6001600160a01b038085165f8181526033602052604080822086860390559286168082529083902080548601905591517fddf252ad1be2c89b69c2b068fc378daa952ba7f163c4a11628f55a4df523b3ef906119339086815260200190565b60405180910390a3611786565b5f6106f2612130565b60405163b700961360e01b81526001600160a01b037f0000000000000000000000000000000000000000000000000000000000000000169063b7009613906119a09033903090631b2ce7f360e11b90600401612df2565b602060405180830381865afa1580156119bb573d5f803e3d5ffd5b505050506040513d601f19601f820116820180604052508101906119df9190612e1f565b6107da5760405162461bcd60e51b8152602060048201526011602482015270756e617574686f72697a65642066726f6d60781b604482015260640161073f565b7f4910fdfa16fed3260ed0e7147f7cc6da11a60208b5b9406d12a635614ffd91435460ff1615611a5757611a52836121a3565b505050565b826001600160a01b03166352d1902d6040518163ffffffff1660e01b8152600401602060405180830381865afa925050508015611ab1575060408051601f3d908101601f19168201909252611aae91810190612faa565b60015b611b145760405162461bcd60e51b815260206004820152602e60248201527f45524331393637557067726164653a206e657720696d706c656d656e7461746960448201526d6f6e206973206e6f74205555505360901b606482015260840161073f565b5f805160206131458339815191528114611b825760405162461bcd60e51b815260206004820152602960248201527f45524331393637557067726164653a20756e737570706f727465642070726f786044820152681a58589b195555525160ba1b606482015260840161073f565b50611a5283838361223e565b611b96612262565b6065805460ff191690557f5db9ee0a495bf2e6ff9c91a7834c1ba4fdd244a5e8aa4e537bd38aeae4b073aa335b6040516001600160a01b03909116815260200160405180910390a1565b6001600160a01b038216611c365760405162461bcd60e51b815260206004820152601f60248201527f45524332303a206d696e7420746f20746865207a65726f206164647265737300604482015260640161073f565b611c415f8383611f59565b8060355f828254611c529190612ddf565b90915550506001600160a01b0382165f818152603360209081526040808320805486019055518481527fddf252ad1be2c89b69c2b068fc378daa952ba7f163c4a11628f55a4df523b3ef910160405180910390a35050565b5f54610100900460ff16611cd05760405162461bcd60e51b815260040161073f90612fc1565b610adf82826122ab565b5f54610100900460ff16611d005760405162461bcd60e51b815260040161073f90612fc1565b6107da81604051806040016040528060018152602001603160f81b8152506122ea565b611d2b612337565b6065805460ff191660011790557f62e78cea01bee320cd4e420270b5ea74000d11b0c9f74754ebdbfc544b05a258611bc33390565b606060cb80546105f190612d01565b606060cc80546105f190612d01565b6001600160a01b038216611dde5760405162461bcd60e51b815260206004820152602160248201527f45524332303a206275726e2066726f6d20746865207a65726f206164647265736044820152607360f81b606482015260840161073f565b611de9825f83611f59565b6001600160a01b0382165f9081526033602052604090205481811015611e5c5760405162461bcd60e51b815260206004820152602260248201527f45524332303a206275726e20616d6f756e7420657863656564732062616c616e604482015261636560f01b606482015260840161073f565b6001600160a01b0383165f8181526033602090815260408083208686039055603580548790039055518581529192917fddf252ad1be2c89b69c2b068fc378daa952ba7f163c4a11628f55a4df523b3ef910160405180910390a3505050565b60606106a583836040518060600160405280602781526020016131656027913961237d565b6001600160a01b0381165f90815260fd602052604090208054600181018255905b50919050565b5f610685611f13611940565b8360405161190160f01b8152600281019290925260228201526042902090565b5f805f611f42878787876123f1565b91509150611f4f816124ae565b5095945050505050565b6001600160a01b0383161580612000575060405163b700961360e01b81526001600160a01b037f0000000000000000000000000000000000000000000000000000000000000000169063b700961390611fc1908690309063a9059cbb60e01b90600401612df2565b602060405180830381865afa158015611fdc573d5f803e3d5ffd5b505050506040513d601f19601f820116820180604052508101906120009190612e1f565b6120405760405162461bcd60e51b8152602060048201526011602482015270756e617574686f72697a65642066726f6d60781b604482015260640161073f565b6001600160a01b03821615806120e7575060405163b700961360e01b81526001600160a01b037f0000000000000000000000000000000000000000000000000000000000000000169063b7009613906120a8908590309063a9059cbb60e01b90600401612df2565b602060405180830381865afa1580156120c3573d5f803e3d5ffd5b505050506040513d601f19601f820116820180604052508101906120e79190612e1f565b6121255760405162461bcd60e51b815260206004820152600f60248201526e756e617574686f72697a656420746f60881b604482015260640161073f565b611a528383836125f7565b5f7f8b73c3c69bb8fe3d512ecc4cf759cc79239f7b179b0ffacaa9a75d522b39400f61215a61265d565b6121626126b5565b60408051602081019490945283019190915260608201524660808201523060a082015260c00160405160208183030381529060405280519060200120905090565b6001600160a01b0381163b6122105760405162461bcd60e51b815260206004820152602d60248201527f455243313936373a206e657720696d706c656d656e746174696f6e206973206e60448201526c1bdd08184818dbdb9d1c9858dd609a1b606482015260840161073f565b5f8051602061314583398151915280546001600160a01b0319166001600160a01b0392909216919091179055565b612247836126e5565b5f825111806122535750805b15611a52576117868383611ebb565b60655460ff166108bc5760405162461bcd60e51b815260206004820152601460248201527314185d5cd8589b194e881b9bdd081c185d5cd95960621b604482015260640161073f565b5f54610100900460ff166122d15760405162461bcd60e51b815260040161073f90612fc1565b60366122dd8382613059565b506037611a528282613059565b5f54610100900460ff166123105760405162461bcd60e51b815260040161073f90612fc1565b60cb61231c8382613059565b5060cc6123298282613059565b50505f60c981905560ca5550565b60655460ff16156108bc5760405162461bcd60e51b815260206004820152601060248201526f14185d5cd8589b194e881c185d5cd95960821b604482015260640161073f565b60605f80856001600160a01b0316856040516123999190613115565b5f60405180830381855af49150503d805f81146123d1576040519150601f19603f3d011682016040523d82523d5f602084013e6123d6565b606091505b50915091506123e786838387612724565b9695505050505050565b5f807f7fffffffffffffffffffffffffffffff5d576e7357a4501ddfe92f46681b20a083111561242657505f905060036124a5565b604080515f8082526020820180845289905260ff881692820192909252606081018690526080810185905260019060a0016020604051602081039080840390855afa158015612477573d5f803e3d5ffd5b5050604051601f1901519150506001600160a01b03811661249f575f600192509250506124a5565b91505f90505b94509492505050565b5f8160048111156124c1576124c1613130565b036124c95750565b60018160048111156124dd576124dd613130565b0361252a5760405162461bcd60e51b815260206004820152601860248201527f45434453413a20696e76616c6964207369676e61747572650000000000000000604482015260640161073f565b600281600481111561253e5761253e613130565b0361258b5760405162461bcd60e51b815260206004820152601f60248201527f45434453413a20696e76616c6964207369676e6174757265206c656e67746800604482015260640161073f565b600381600481111561259f5761259f613130565b036107da5760405162461bcd60e51b815260206004820152602260248201527f45434453413a20696e76616c6964207369676e6174757265202773272076616c604482015261756560f01b606482015260840161073f565b60655460ff1615611a525760405162461bcd60e51b815260206004820152602a60248201527f45524332305061757361626c653a20746f6b656e207472616e736665722077686044820152691a5b19481c185d5cd95960b21b606482015260840161073f565b5f80612667611d60565b80519091501561267e578051602090910120919050565b60c954801561268d5792915050565b7fc5d2460186f7233c927e7db2dcc703c0e500b653ca82273b7bfad8045d85a4709250505090565b5f806126bf611d6f565b8051909150156126d6578051602090910120919050565b60ca54801561268d5792915050565b6126ee816121a3565b6040516001600160a01b038216907fbc7cd75a20ee27fd9adebab32041f755214dbc6bffa90cc0225b39da2e5c2d3b905f90a250565b606083156127925782515f0361278b576001600160a01b0385163b61278b5760405162461bcd60e51b815260206004820152601d60248201527f416464726573733a2063616c6c20746f206e6f6e2d636f6e7472616374000000604482015260640161073f565b50816112b4565b6112b483838151156127a75781518083602001fd5b8060405162461bcd60e51b815260040161073f919061280e565b5f5b838110156127db5781810151838201526020016127c3565b50505f910152565b5f81518084526127fa8160208601602086016127c1565b601f01601f19169290920160200192915050565b602081525f6106a560208301846127e3565b80356001600160a01b0381168114612836575f80fd5b919050565b5f806040838503121561284c575f80fd5b61285583612820565b946020939093013593505050565b5f805f60608486031215612875575f80fd5b61287e84612820565b925061288c60208501612820565b9150604084013590509250925092565b5f602082840312156128ac575f80fd5b6106a582612820565b634e487b7160e01b5f52604160045260245ffd5b5f82601f8301126128d8575f80fd5b813567ffffffffffffffff808211156128f3576128f36128b5565b604051601f8301601f19908116603f0116810190828211818310171561291b5761291b6128b5565b81604052838152866020858801011115612933575f80fd5b836020870160208301375f602085830101528094505050505092915050565b5f805f60608486031215612964575f80fd5b61296d84612820565b925060208401359150604084013567ffffffffffffffff81111561298f575f80fd5b61299b868287016128c9565b9150509250925092565b5f8083601f8401126129b5575f80fd5b50813567ffffffffffffffff8111156129cc575f80fd5b6020830191508360208285010111156129e3575f80fd5b9250929050565b5f805f80604085870312156129fd575f80fd5b843567ffffffffffffffff80821115612a14575f80fd5b612a20888389016129a5565b90965094506020870135915080821115612a38575f80fd5b50612a45878288016129a5565b95989497509550505050565b5f8060408385031215612a62575f80fd5b612a6b83612820565b9150602083013567ffffffffffffffff811115612a86575f80fd5b612a92858286016128c9565b9150509250929050565b60ff60f81b881681525f602060e081840152612abb60e084018a6127e3565b8381036040850152612acd818a6127e3565b606085018990526001600160a01b038816608086015260a0850187905284810360c086015285518082528387019250908301905f5b81811015612b1e57835183529284019291840191600101612b02565b50909c9b505050505050505050505050565b5f8060208385031215612b41575f80fd5b823567ffffffffffffffff80821115612b58575f80fd5b818501915085601f830112612b6b575f80fd5b813581811115612b79575f80fd5b8660208260051b8501011115612b8d575f80fd5b60209290920196919550909350505050565b5f602080830181845280855180835260408601915060408160051b87010192508387015f5b82811015612bf257603f19888603018452612be08583516127e3565b94509285019290850190600101612bc4565b5092979650505050505050565b5f805f8060808587031215612c12575f80fd5b612c1b85612820565b9350612c2960208601612820565b925060408501359150606085013567ffffffffffffffff811115612c4b575f80fd5b612c57878288016128c9565b91505092959194509250565b5f805f805f805f60e0888a031215612c79575f80fd5b612c8288612820565b9650612c9060208901612820565b95506040880135945060608801359350608088013560ff81168114612cb3575f80fd5b9699959850939692959460a0840135945060c09093013592915050565b5f8060408385031215612ce1575f80fd5b612cea83612820565b9150612cf860208401612820565b90509250929050565b600181811c90821680612d1557607f821691505b602082108103611f0157634e487b7160e01b5f52602260045260245ffd5b6020808252602c908201527f46756e6374696f6e206d7573742062652063616c6c6564207468726f7567682060408201526b19195b1959d85d1958d85b1b60a21b606082015260800190565b6020808252602c908201527f46756e6374696f6e206d7573742062652063616c6c6564207468726f7567682060408201526b6163746976652070726f787960a01b606082015260800190565b634e487b7160e01b5f52601160045260245ffd5b8082018082111561068557610685612dcb565b6001600160a01b0393841681529190921660208201526001600160e01b0319909116604082015260600190565b5f60208284031215612e2f575f80fd5b815180151581146106a5575f80fd5b602080825260119082015270526573747269637465642061636365737360781b604082015260600190565b6001600160a01b03858116825284166020820152604081018390526080606082018190525f906123e7908301846127e3565b5f60208284031215612eab575f80fd5b81516001600160e01b0319811681146106a5575f80fd5b6020808252602a908201527f455243313336333a206f6e5472616e73666572526563656976656420696e76616040820152691b1a59081c995cdd5b1d60b21b606082015260800190565b634e487b7160e01b5f52603260045260245ffd5b5f808335601e19843603018112612f35575f80fd5b83018035915067ffffffffffffffff821115612f4f575f80fd5b6020019150368190038213156129e3575f80fd5b5f60018201612f7457612f74612dcb565b5060010190565b60018060a01b0384168152826020820152606060408201525f612fa160608301846127e3565b95945050505050565b5f60208284031215612fba575f80fd5b5051919050565b6020808252602b908201527f496e697469616c697a61626c653a20636f6e7472616374206973206e6f74206960408201526a6e697469616c697a696e6760a81b606082015260800190565b601f821115611a52575f81815260208120601f850160051c810160208610156130325750805b601f850160051c820191505b818110156130515782815560010161303e565b505050505050565b815167ffffffffffffffff811115613073576130736128b5565b613087816130818454612d01565b8461300c565b602080601f8311600181146130ba575f84156130a35750858301515b5f19600386901b1c1916600185901b178555613051565b5f85815260208120601f198616915b828110156130e8578886015182559484019460019091019084016130c9565b508582101561310557878501515f19600388901b60f8161c191681555b5050505050600190811b01905550565b5f82516131268184602087016127c1565b9190910192915050565b634e487b7160e01b5f52602160045260245ffdfe360894a13ba1a3210667c828492db98dca3e2076cc3735a920a3ca505d382bbc416464726573733a206c6f772d6c6576656c2064656c65676174652063616c6c206661696c6564a2646970667358221220ee98fc1dc66fdda592e2eb37927c26c6cc4d1d5357dbf9a75b6b247bb0fad53e64736f6c63430008140033",
  "linkReferences": {},
  "deployedLinkReferences": {}
}